{
  "contractName": "Fruitshop",
  "abi": [
    {
      "inputs": [],
      "payable": false,
      "stateMutability": "nonpayable",
      "type": "constructor"
    },
    {
      "constant": false,
      "inputs": [],
      "name": "buyApple",
      "outputs": [],
      "payable": true,
      "stateMutability": "payable",
      "type": "function"
    },
    {
      "constant": true,
      "inputs": [],
      "name": "getMyApple",
      "outputs": [
        {
          "internalType": "uint256",
          "name": "",
          "type": "uint256"
        }
      ],
      "payable": false,
      "stateMutability": "view",
      "type": "function"
    },
    {
      "constant": false,
      "inputs": [
        {
          "internalType": "uint256",
          "name": "_applePrice",
          "type": "uint256"
        }
      ],
      "name": "sellApple",
      "outputs": [],
      "payable": true,
      "stateMutability": "payable",
      "type": "function"
    }
  ],
  "bytecode": "0x608060405234801561001057600080fd5b5061023b806100206000396000f3fe6080604052600436106100345760003560e01c8063284131c714610039578063aacddd7c14610043578063db54b74c1461006e575b600080fd5b61004161009c565b005b34801561004f57600080fd5b506100586100ec565b6040518082815260200191505060405180910390f35b61009a6004803603602081101561008457600080fd5b8101908080359060200190929190505050610132565b005b6000803373ffffffffffffffffffffffffffffffffffffffff1673ffffffffffffffffffffffffffffffffffffffff16815260200190815260200160002060008154809291906001019190505550565b60008060003373ffffffffffffffffffffffffffffffffffffffff1673ffffffffffffffffffffffffffffffffffffffff16815260200190815260200160002054905090565b6000816000803373ffffffffffffffffffffffffffffffffffffffff1673ffffffffffffffffffffffffffffffffffffffff1681526020019081526020016000205402905060008060003373ffffffffffffffffffffffffffffffffffffffff1673ffffffffffffffffffffffffffffffffffffffff168152602001908152602001600020819055503373ffffffffffffffffffffffffffffffffffffffff166108fc829081150290604051600060405180830381858888f19350505050158015610201573d6000803e3d6000fd5b50505056fea265627a7a72315820b8ff935ca81ac2da7bd2e09dcecc516bb4077511ddb46d7cec541bd7f8d92b7b64736f6c63430005100032",
  "source": "// SPDX-License-Identifier: MIT\npragma solidity >=0.4.22 <0.9.0;\n\n/*\n  1. 보낸 사람의 계정에서 사과를 총 몇개 갖고 있는가\n  2. 사과를 구매했을 시, 해당 계정(주소)에 사과를 추가함\n  3. 사과를 판매시 내가 갖고 있는 사과 * 사과 구매 가격 만큼 토큰을 반환해주고\n    사과를 0개로 바꿔준다.\n  4. 내 사과를 반환해주는 함수\n*/\n\ncontract Fruitshop {\n  mapping(address=>uint) myApple;  // 주소별로 사과를 저장할 수 있도록 mapping으로 선언\n  constructor() public {\n  }\n\n  function buyApple() payable public{\n    // msg.sender : contract를 요청한 사람의 주소를 담고 있는 내장 객체\n    myApple[msg.sender]++;      // 초기화 값이 0 인데 이거를 1로 만들어줌\n  }\n\n  function getMyApple() public view returns(uint){\n    return myApple[msg.sender];\n  }\n\n  function sellApple(uint _applePrice) payable external{\n    uint totalPrice = (myApple[msg.sender] * _applePrice);\n                      // 내가 갖고 있는 사과 * 가격\n    myApple[msg.sender] = 0;    // 사과 0으로 초기화\n    msg.sender.transfer(totalPrice);    // 환볼 느낌\n  }\n}\n\n/*\n  truffle version 해보면 해석기는 ver 5 이다.\n  근데 vscode 는 ver 8 이라서 여기서 나는 오류가 해설할때는 안날 수 있다.\n\n  solcjs --version\n  이건 vscode ver\n*/\n",
  "sourcePath": "/Users/hannahlee/Desktop/project/Fruitshop/contracts/Fruitshop.sol",
  "compiler": {
    "name": "solc",
    "version": "0.5.16+commit.9c3226ce.Emscripten.clang"
  },
  "schemaVersion": "3.4.4",
  "updatedAt": "2022-01-19T07:24:13.477Z",
  "networkType": "ethereum",
  "devdoc": {
    "methods": {}
  },
  "userdoc": {
    "methods": {}
  }
}